:100000000C942A000C9447000C9447000C94470071
:100010000C9447000C9447000C9447000C94470044
:100020000C9447000C9449000C9447000C94470032
:100030000C9447000C9447000C9447000C94470024
:100040000C9447000C9447000C9447000C94470014
:100050000C94470011241FBECFE5D8E0DEBFCDBF12
:1000600010E0A0E6B0E0ECE0F8E002C005900D92F0
:10007000A036B107D9F720E0A0E6B0E001C01D929C
:10008000A236B207E1F70E9460000C9404040C94BD
:1000900000001F920F920FB60F9211248F939F931F
:1000A000809160009091610001969093610080932F
:1000B00060009F918F910F900FBE0F901F90189529
:1000C00081E08ABB82E082BB789484E089BF1FBC58
:1000D0000E94DD010E94510180E090E00E94060133
:1000E00060E080E00E94700160E081E00E947001A9
:1000F0008BB381608BBB25E32A95F1F700008BB3AE
:100100008E7F8BBB1DBC1CBC81E48EBD80E288BF92
:1001100084E088BF08B605FEFDCF1DBC1CBC81E095
:100120008EBD80E288BF84E088BF1092610010928B
:10013000600008B605FEFDCF66B577B580E090E0BB
:100140000E944F0320E030E049E654E40E94DB02C5
:100150006B017C0120E030E040EF51E40E94D602C8
:100160001816F4F120E030E040EA50E4C701B6018F
:100170000E94FF038823A4F180E00E94B80181E07F
:100180000E94B80180E090E00E941F018FEF99E685
:1001900028E1815090402040E1F700C0000060E07D
:1001A00080E00E94700161E081E00E9470018FEFA9
:1001B00094E32CE0815090402040E1F700C0000023
:1001C00080E00E94B80181E00E94B8018FEF93ECBB
:1001D00029E0815090402040E1F700C0000080CF2E
:1001E00060E080E00E94700160E081E00E947001A8
:1001F00080E090E00E9438018FEF94E32CE0815082
:1002000090402040E1F700C000006ACF009731F431
:1002100041E062E082E00E94FA0108958130910598
:1002200031F441E067E082E00E94FA01089502970C
:1002300029F441E063E083E00E94FA010895009709
:1002400031F441E062E082E00E946802089581306A
:10025000910531F441E067E082E00E946802089570
:10026000029729F441E063E083E00E946802089568
:10027000009731F440E062E082E00E946802089555
:100280008130910531F440E067E082E00E9468022D
:100290000895029729F440E063E083E00E94680239
:1002A000089541E064E083E00E94FA0141E063E0E8
:1002B00082E00E94FA0141E064E082E00E94FA01DB
:1002C00041E065E083E00E94FA0141E065E082E000
:1002D0000E94FA0141E066E082E00E94FA0108957E
:1002E000CF93C62F882319F0813009F13FC041E038
:1002F00064E083E00E946802CC2319F0C13061F011
:1003000035C040E063E082E00E94680241E064E0C2
:1003100082E00E9468022AC040E064E082E00E941D
:10032000680241E063E082E00E9468021FC041E091
:1003300065E083E00E946802CC2319F0C13061F0CF
:1003400015C040E065E082E00E94680241E066E09E
:1003500082E00E9468020AC040E066E082E00E94FB
:10036000680241E065E082E00E946802CF91089552
:10037000882319F0813089F0089540E064E083E03B
:100380000E94680240E063E082E00E94680240E070
:1003900064E082E00E946802089540E065E083E046
:1003A0000E94680240E065E082E00E94680240E04E
:1003B00066E082E00E946802089581B3806281BB9A
:1003C0008FB582608FBD8FB58E7F8FBD8EB58860F3
:1003D0008EBD8EB580618EBD8FB580688FBD8FB5A7
:1003E0008F7B8FBD8EB584608EBD82EE94E097BD0D
:1003F00086BD0895411138C0813091F028F08230D7
:10040000D9F0833029F108952AB381E090E002C049
:10041000880F991F6A95E2F7809582238ABB089519
:1004200027B381E090E002C0880F991F6A95E2F738
:100430008095822387BB089524B381E090E002C0B9
:10044000880F991F6A95E2F78095822384BB0895EF
:1004500021B381E090E002C0880F991F6A95E2F70E
:100460008095822381BB0895813089F028F0823005
:10047000C9F0833011F108952AB381E090E002C001
:10048000880F991F6A95E2F7822B8ABB089527B3DC
:1004900081E090E002C0880F991F6A95E2F7822BF5
:1004A00087BB089524B381E090E002C0880F991FB4
:1004B0006A95E2F7822B84BB089521B381E090E036
:1004C00002C0880F991F6A95E2F7822B81BB0895BD
:1004D000411138C0813091F028F08230D9F083305A
:1004E00029F108952BB381E090E002C0880F991F95
:1004F0006A95E2F7809582238BBB089528B381E04B
:1005000090E002C0880F991F6A95E2F780958223D8
:1005100088BB089525B381E090E002C0880F991F41
:100520006A95E2F78095822385BB089522B381E026
:1005300090E002C0880F991F6A95E2F780958223A8
:1005400082BB0895813089F028F08230C9F0833071
:1005500011F108952BB381E090E002C0880F991F3C
:100560006A95E2F7822B8BBB089528B381E090E077
:1005700002C0880F991F6A95E2F7822B88BB089505
:1005800025B381E090E002C0880F991F6A95E2F7D9
:10059000822B85BB089522B381E090E002C0880FD2
:1005A000991F6A95E2F7822B82BB08950E948A0305
:1005B00008F481E008950E94EF020C94C5030E94A4
:1005C000BE0358F00E94B70340F029F45F3F29F0C2
:1005D0000C94AE0351110C94F9030C94B4030E94D3
:1005E000D60368F39923B1F3552391F3951B550B6B
:1005F000BB27AA2762177307840738F09F5F5F4FF6
:10060000220F331F441FAA1FA9F335D00E2E3AF034
:10061000E0E832D091505040E695001CCAF72BD04C
:10062000FE2F29D0660F771F881FBB1F261737079D
:100630004807AB07B0E809F0BB0B802DBF01FF27CF
:1006400093585F4F3AF09E3F510578F00C94AE03FB
:100650000C94F9035F3FE4F3983ED4F386957795C5
:100660006795B795F7959F5FC9F7880F911D969588
:10067000879597F90895E1E0660F771F881FBB1FE4
:10068000621773078407BA0720F0621B730B840B91
:10069000BA0BEE1F88F7E0950895E89409C097FB20
:1006A0003EF490958095709561957F4F8F4F9F4F49
:1006B0009923A9F0F92F96E9BB279395F69587958D
:1006C00077956795B795F111F8CFFAF4BB0F11F450
:1006D00060FF1BC06F5F7F4F8F4F9F4F16C08823F7
:1006E00011F096E911C0772321F09EE8872F762F2D
:1006F00005C0662371F096E8862F70E060E02AF06E
:100700009A95660F771F881FDAF7880F9695879559
:1007100097F90895990F0008550FAA0BE0E8FEEF2E
:1007200016161706E807F907C0F012161306E407B5
:10073000F50798F0621B730B840B950B39F40A26AE
:1007400061F0232B242B252B21F408950A2609F48C
:10075000A140A6958FEF811D811D089597F99F6790
:1007600080E870E060E008959FEF80EC0895002439
:100770000A941616170618060906089500240A9406
:1007800012161306140605060895092E0394000C8C
:1007900011F4882352F0BB0F40F4BF2B11F460FF1B
:1007A00004C06F5F7F4F8F4F9F4F089557FD905844
:1007B000440F551F59F05F3F71F04795880F97FB25
:1007C000991F61F09F3F79F08795089512161306DF
:1007D0001406551FF2CF4695F1DF08C0161617060E
:1007E0001806991FF1CF8695710561050894089543
:1007F000E894BB2766277727CB0197F908950E94D5
:0C0800008A0308F48FEF0895F894FFCFEE
:00000001FF
